:10000000B22AFF3FFF3FFF3FAC3003138316E500EA
:1000100083126E088316E60083126F088316E700CA
:100020008A15D9248A117008E7000230E5000130F2
:10003000E6008A1533238A1183165608013A031DF8
:100040002E280130E5000130E6002B30E7008A154C
:1000500009248A1107308316D70039280630D700C3
:100060000130E5001030E6002D30E7008A15092444
:100070008A1183165508E5008A156B258A117008C8
:10008000CF007108D000AC30E5004508E600460816
:10009000E7008A15D9248A117008E7000230E500CC
:1000A0000130E6008A1533238A1183164F08E500D4
:1000B0005008E600AC30E7008A1550228A118A15F4
:1000C00069268A110230E5000930E600AC30E7000D
:1000D0008A1533238A110230FC00FF30FB00FF3009
:1000E000FA00FC0B74287B28FB0B77287A28FA0B84
:1000F0007728742871284630FB00FF30FA00FB0B8C
:1001000082288528FA0B82287F28CF30FA00FA0B44
:10011000872800000230FC00FF30FB00FF30FA00AF
:10012000FC0B93289A28FB0B96289928FA0B962803
:10013000932890284630FB00FF30FA00FB0BA128E3
:10014000A428FA0BA1289E28CF30FA00FA0BA62883
:1001500000000230FC00FF30FB00FF30FA00FC0B17
:10016000B228B928FB0BB528B828FA0BB528B22855
:10017000AF284630FB00FF30FA00FB0BC028C32835
:10018000FA0BC028BD28CF30FA00FA0BC5280000B2
:10019000AC308316E50083126E088316E6008312E6
:1001A0006F088316E7008A15D9248A117008E700C2
:1001B0000230E5000130E6008A1533238A11AC30A5
:1001C0008316E5000130F4005708F00074080319A5
:1001D000ED28F00D7010FF3FE7287008BB3F84004A
:1001E0000008E600840A0008E7008A15D9248A116D
:1001F0007008E7000230E5000130E6008A1533237D
:100200008A1183164D08E5004E08E600AC30E70081
:100210008A1550228A118A1569268A110230E50052
:100220000930E600AC30E7008A1533238A1102302A
:10023000FC00FF30FB00FF30FA00FC0B20292729CF
:10024000FB0B23292629FA0B232920291D294630B7
:10025000FB00FF30FA00FB0B2E293129FA0B2E2967
:100260002B29CF30FA00FA0B332900000230FC00B2
:10027000FF30FB00FF30FA00FC0B3F294629FB0B47
:1002800042294529FA0B42293F293C294630FB00E7
:10029000FF30FA00FB0B4D295029FA0B4D294A2952
:1002A000CF30FA00FA0B522900000230FC00FF3078
:1002B000FB00FF30FA00FC0B5E296529FB0B61296E
:1002C0006429FA0B61295E295B294630FB00FF3067
:1002D000FA00FB0B6C296F29FA0B6C296929CF30C6
:1002E000FA00FA0B7129000083165608013A031D23
:1002F00080294D08CF074E080318013FD0079129E8
:100300004E085002031D86294D084F0203188B2901
:10031000CF01D00191294D08CF02031CD0034E0814
:10032000D0025508E5004F08E6005008E7008A159E
:10033000A7258A1107300313D1005108003C031888
:10034000D0290230E5005108093FE6002D30E700D2
:100350008A1509248A1185171230FB00FF30FA0034
:10036000FB0BB329B629FA0BB329B029CE30FA001A
:10037000FA0BB8290000000085131230FB00FF3093
:10038000FA00FB0BC429C729FA0BC429C129CE30B6
:10039000FA00FA0BC929000000008316D1039D2939
:1003A000AC30E50083126E088316E60083126F08F6
:1003B0008316E7008A15D9248A117008E7000230F5
:1003C000E5000130E6008A1533238A11AC3083162C
:1003D000E5004308E6004408E7008A15D9248A119D
:1003E0007008E7000230E5000130E6008A1533238B
:1003F0008A1183164F08E5005008E600AC30E7008C
:100400008A1550228A118A1569268A110730D1006F
:100410005108003C03183E2A0230E5005108093F0C
:10042000E6005108AC3F84000008E7008A15092463
:100430008A111230FB00FF30FA00FB0B202A232A1E
:10044000FA0B202A1D2ACE30FA00FA0B252A0000CA
:10045000000085171230FB00FF30FA00FB0B312A39
:10046000342AFA0B312A2E2ACE30FA00FA0B362A19
:100470000000000085138316D103082A0230FC0017
:10048000FF30FB00FF30FA00FC0B472A4E2AFB0B23
:100490004A2A4D2AFA0B4A2A472A442A4630FB00A8
:1004A000FF30FA00FB0B552A582AFA0B552A522A1C
:1004B000CF30FA00FA0B5A2A00000230FC00FF305D
:1004C000FB00FF30FA00FC0B662A6D2AFB0B692A41
:1004D0006C2AFA0B692A662A632A4630FB00FF3031
:1004E000FA00FB0B742A772AFA0B742A712ACF3090
:1004F000FA00FA0B792A00000230FC00FF30FB0002
:10050000FF30FA00FC0B852A8C2AFB0B882A8B2AE9
:10051000FA0B882A852A822A4630FB00FF30FA002F
:10052000FB0B932A962AFA0B932A902ACF30FA00D3
:10053000FA0B982A0000AC30E50083126E0883168F
:10054000E60083126F088316E7008A15D9248A1102
:100550007008E7000230E5000130E6008A15332319
:100560008A1108008A1500208A118A157E248A11B2
:100570008A1577268A110313831285172130FB0011
:10058000FF30FA00FB0BC52AC82AFA0BC52AC22A7B
:100590006030FA00FA0BCA2A00000000851301300F
:1005A000031794008A15ED228A110C30031794006A
:1005B0008A15ED228A11AC308316E5003B08E6006F
:1005C0003C08E7008A15D9248A117008E700013039
:1005D000E5000430E6008A1533238A11AC30831617
:1005E000E50083126E088316E60083126F088316F7
:1005F000E7008A15D9248A117008E7000230E50067
:100600000130E6008A1533238A118316CD01CE010D
:10061000D401031383168A157B238A117008D40032
:100620007008303A031D9E2B831286140230831605
:10063000D5000130D6008A15AA228A117008D4008C
:1006400070082A3A031D862B8A1597258A11AC302B
:10065000E50083126E088316E60083126F08831686
:10066000E7008A15D9248A117008E7000230E500F6
:100670000130E6008A1533238A11AC308316E50079
:100680003F08E6004008E7008A15D9248A1170085F
:10069000E7000230E5000130E6008A1533238A11B5
:1006A0000230FC00FF30FB00FF30FA00FC0B592B3E
:1006B000602BFB0B5C2B5F2BFA0B5C2B592B562B07
:1006C0004630FB00FF30FA00FB0B672B6A2BFA0B5E
:1006D000672B642BCF30FA00FA0B6C2B0000AC3088
:1006E0008316E50083126E088316E60083126F08F6
:1006F0008316E7008A15D9248A117008E7000230B2
:10070000E5000130E6008A1533238A11AC308316E8
:10071000E50083126E088316E60083126F088316C5
:10072000E7008A15D9248A117008E7000230E50035
:100730000130E6008A1533238A1186108A150425B4
:100740008A118A15E7208A1183164B08003A031D87
:10075000AD2B4C08003A0319352D831286148316ED
:100760004B08003A0319BE2B4B08E5008A156B2590
:100770008A117008CF007108D000C72B4C08E50023
:100780008A156B258A117008CF007108D000AC3033
:10079000E50083126E088316E60083126F08831645
:1007A000E7008A15D9248A117008E7000230E500B5
:1007B0000130E6008A1533238A11AC308316E50038
:1007C0004308E6004408E7008A15D9248A11700816
:1007D000E7000230E5000130E6008A1533238A1174
:1007E00083164F08E5005008E600AC30E7008A1594
:1007F00050228A118A1569268A110730D1005108C2
:10080000003C0318352C0230E5005108093FE60092
:100810005108AC3F84000008E7008A1509248A11BA
:100820001230FB00FF30FA00FB0B172C1A2CFA0BCE
:10083000172C142CCE30FA00FA0B1C2C00000000F0
:1008400085171230FB00FF30FA00FB0B282C2B2CF5
:10085000FA0B282C252CCE30FA00FA0B2D2C000098
:10086000000085138316D103FF2B0230FC00FF30FC
:10087000FB00FF30FA00FC0B3E2C452CFB0B412CFF
:10088000442CFA0B412C3E2C3B2C4630FB00FF3015
:10089000FA00FB0B4C2C4F2CFA0B4C2C492CCF3074
:1008A000FA00FA0B512C00000230FC00FF30FB0074
:1008B000FF30FA00FC0B5D2C642CFB0B602C632CCE
:1008C000FA0B602C5D2C5A2C4630FB00FF30FA00EE
:1008D000FB0B6B2C6E2CFA0B6B2C682CCF30FA00B8
:1008E000FA0B702C00000230FC00FF30FB00FF30E0
:1008F000FA00FC0B7C2C832CFB0B7F2C822CFA0B3C
:100900007F2C7C2C792C4630FB00FF30FA00FB0B4F
:100910008A2C8D2CFA0B8A2C872CCF30FA00FA0BFC
:100920008F2C0000AC30E50083126E088316E600C1
:1009300083126F088316E7008A15D9248A1170087C
:10094000E7000230E5000130E6008A1533238A1102
:1009500003308316D5000230D60039258A150425C8
:100960008A118A15E7208A1183164B08003A031D65
:10097000BD2C4C08003A03192E2D4E08003C031DD7
:10098000C32C4D08003C03182E2D4D08E5004E08E1
:10099000E600AC30E7008A1550228A118A156926D4
:1009A0008A110230E5000930E600AC30E7008A1514
:1009B00033238A110230FC00FF30FB00FF30FA00C5
:1009C000FC0BE32CEA2CFB0BE62CE92CFA0BE62CB7
:1009D000E32CE02C4630FB00FF30FA00FB0BF12C3F
:1009E000F42CFA0BF12CEE2CCF30FA00FA0BF62C8B
:1009F00000000230FC00FF30FB00FF30FA00FC0B6F
:100A0000022D092DFB0B052D082DFA0B052D022DAE
:100A1000FF2C4630FB00FF30FA00FB0B102D132D8E
:100A2000FA0B102D0D2DCF30FA00FA0B152D00000A
:100A300083164B08003A0319222D4B08D5000130CC
:100A4000D60004208A15E7208A1183164C08003A44
:100A500003192E2D4C08D500D60104200313831250
:100A60000313831203138312861003138312092BBB
:100A7000382D03138316D801D9014C084B07F00019
:100A8000F1010318F10A7008E400D7010A30570297
:100A90000318522D5708DA3FF000700884008001D7
:100AA000D70A462DCD01CE01AC30E50083126E0889
:100AB0008316E60083126F088316E7008A15D9248F
:100AC0008A117008E7005608E5000130E6008A1533
:100AD00033238A110E30031794008A15ED228A11F0
:100AE00083165608E5005503E6002430E7008A1512
:100AF00009248A1101308316EC008A15AB248A116F
:100B00007008E5007108E6008A1545248A1170080E
:100B1000CB000230EC008A15AB248A117008E50086
:100B20007108E6008A1545248A117008CC00700807
:100B30004B07F200F3010318F30A00307306031D9C
:100B4000A32D720864060319F52D0130E50001306C
:100B5000E6002030E7008A1509248A110130831647
:100B6000E5000230E6002E30E7008A1509248A11DC
:100B700001308316E5000F30E6002E30E7008A15BD
:100B800009248A1101308316E5001030E600203078
:100B9000E7008A1509248A1183164B08003C0318C4
:100BA000DB2D0130E5000230E60030304B07E70076
:100BB0008A1509248A1183164C08003C0318EA2D73
:100BC0000130E5000F30E60030304C07E7008A15B1
:100BD00009248A1183164C084B07E4000C300317D4
:100BE000831294008A15ED228A1183164B08003A6D
:100BF000031D1D2E4C08003A031D1D2ECD01CE01F4
:100C0000AC30E50083126E088316E60083126F088D
:100C10008316E7008A15D9248A117008E70002308C
:100C2000E5000130E6008A1533238A110C300317E2
:100C300094008A15ED228A110800031383128A1585
:100C40007B238A117008D9005908233A031D4B2EC3
:100C50005808003C03184B2E5803F0007008D800C9
:100C60005608E50070085507E6002030E7008A15B1
:100C700009248A1183165808DA3FF00070088400AE
:100C80002030800010300317831294008A15ED2263
:100C90008A118316D9015908003C0318732E59088C
:100CA000393C031C732E093058020318732E59085F
:100CB000233A0319732E59082A3A0319732E580838
:100CC000DA3FF00070088400590880005608E500FB
:100CD00058085507E6005908E7008A1509248A11C3
:100CE0008316D80AD90159082A3A03197F2E5908C0
:100CF000233A03197F2E5908393C03187A2D5908D5
:100D0000393C0318A22E5908413A031D8A2EC830D7
:100D1000CD00CE015908423A031D912E9630CD00E8
:100D2000CE015908433A031D992E6430CD0000309E
:100D3000CE005908443A031DA12E3230CD000030B8
:100D4000CE00B92E59082A3A031DB72E0130580299
:100D5000031CB42EDA30E5008A15F8218A117008D8
:100D6000CD007108CE00B62ECD01CE01B92ECD0139
:100D7000CE01AC30E50083126E088316E6008312C4
:100D80006F088316E7008A15D9248A117008E700D6
:100D90000230E5000130E6008A1533238A110C3059
:100DA000031794008A15ED228A1108000317831295
:100DB00093019001103010020318352F0230F40017
:100DC0001008F00074080319E92EF00D7010FF3FB1
:100DD000E32E7008253FF400740884000008F0003A
:100DE000840A0008F10008307002F2000030031C91
:100DF000013F7102F3007408840000089100840A26
:100E000000089200083091070318920A7308031330
:100E100083166D02031D0E2F72086C02031C312F06
:100E20006D08031783121202031D1C2F0313831670
:100E30006C08031783121102031C312F0230F400D7
:100E40001008F00074080319292FF00D7010FF3FEF
:100E5000232F2530F007023070078400000893002C
:100E6000352F03178312900ADA2E1308F0000800BA
:100E70000800FF3FFF3FFF3FFF3FFF3FFF3FFF3FB8
:100E8000FF3FFF3FFF3FFF3FFF3FFF3FFF3FFF3F72
:100E9000FF3FFF3FFF3FFF3FFF3FFF3FFF3FFF3F62
:100EA000FF3FFF3FFF3FFF3FFF3FFF3FFF3FFF3F52
:100EB000FF3FFF3FFF3FFF3FFF3FFF3FFF3FFF3F42
:100EC000FF3FFF3FFF3FFF3FFF3FFF3FFF3FFF3F32
:100ED000FF3FFF3FFF3FFF3FFF3FFF3FFF3FFF3F22
:100EE000FF3FFF3FFF3FFF3FFF3FFF3FFF3FFF3F12
:100EF000FF3FFF3FFF3FFF3FFF3FFF3FFF3FFF3F02
:100F0000FF3FFF3FFF3FFF3FFF3FFF3FFF3FFF3FF1
:100F1000FF3FFF3FFF3FFF3FFF3FFF3FFF3FFF3FE1
:100F2000FF3FFF3FFF3FFF3FFF3FFF3FFF3FFF3FD1
:100F3000FF3FFF3FFF3FFF3FFF3FFF3FFF3FFF3FC1
:100F4000FF3FFF3FFF3FFF3FFF3FFF3FFF3FFF3FB1
:100F5000FF3FFF3FFF3FFF3FFF3FFF3FFF3FFF3FA1
:100F6000FF3FFF3FFF3FFF3FFF3FFF3FFF3FFF3F91
:100F7000FF3FFF3FFF3FFF3FFF3FFF3FFF3FFF3F81
:100F8000FF3FFF3FFF3FFF3FFF3FFF3FFF3FFF3F71
:100F9000FF3FFF3FFF3FFF3FFF3FFF3FFF3FFF3F61
:100FA000FF3FFF3FFF3FFF3FFF3FFF3FFF3FFF3F51
:100FB000FF3FFF3FFF3FFF3FFF3FFF3FFF3FFF3F41
:100FC000FF3FFF3FFF3FFF3FFF3FFF3FFF3FFF3F31
:100FD000FF3FFF3FFF3FFF3FFF3FFF3FFF3FFF3F21
:100FE000FF3FFF3FFF3FFF3FFF3FFF3FFF3FFF3F11
:100FF000FF3FFF3FFF3FFF3FFF3FFF3FFF3FFF3F01
:10100000003003138316CF000030D0000030CD0035
:101010000030CE007C30D2000E30D300B7308312C7
:10102000EE000D30EF0018308316BB000E30BC0010
:10103000DB30BD000D30BE00C930BF000D30C00038
:101040005130C1000E30C2006130C3000E30C40008
:101050004030C5000E30C6004930C7000E30C80011
:101060005930C9000E30CA008B308312A500003001
:10107000A6003030A7000030A8002C30A9000230B4
:10108000AA003130AB000030AC001E30AD000230A1
:10109000AE003230AF000030B0000D30B100023091
:1010A000B2003330B3000030B400DC30B5000130A2
:1010B000B6003430B7000030B800C930B900013094
:1010C000BA003530BB000030BC00B130BD0001308B
:1010D000BE003630BF000030C0006D30C1000130AE
:1010E000C2003730C3000030C4005030C5000130AA
:1010F000C6003830C7000030C8002B30C9000130AE
:10110000CA003930CB000030CC00BE30CD000030FA
:10111000CE002A30CF000030D0004E30D100003059
:10112000D2002330D3000030D400FC30D500013091
:10113000D6004130D7000030D8009830D9000130B7
:10114000DA004230DB000030DC000730DD00013027
:10115000DE004330DF000030E0000F30E1000030FF
:10116000E2004430E3000030E4009E30EC00023046
:10117000ED0026308316A0000230A100C230A2008C
:101180000130A3004A30A4000130A500C830A600F9
:101190000030A7009630A8000030A9005030AA0007
:1011A0000030AB0000308312E5000430E600083068
:1011B000E7000C30E8001030E9001430EA00183085
:1011C000EB0000308316CB000030CC00080001306B
:1011D00003138316E5000130E6002030E700092400
:1011E00001308316E5000230E6002E30E7000924C6
:1011F00001308316E5000F30E6002E30E7000924A9
:1012000001308316E5001030E6002030E7000924A5
:1012100083164B08003C031815290130E500023005
:10122000E60030304B07E700092483164C08003CE9
:10123000031822290130E5000F30E60030304C075A
:10124000E700092403308316EC00AB24033071025D
:10125000031D2C29DE30700203183D290130E50002
:101260000130E6004230E700092401308316E50032
:101270001030E6004230E70009240313831208000F
:10128000EC25EC25EC25831665088312A000831657
:10129000650884008417801100110010801300136A
:1012A00080120012841380110011001080130013AB
:1012B000801200128016001680158011EC25801512
:1012C0008011EC2580158011EC2580160012801508
:1012D0008011EC2580018016801580118001801717
:1012E00080158011EC258001001680158011800189
:1012F00080158011EC258001801580110016801565
:101300008011EC25800180158011001680160017D1
:10131000801780158011EC250130A100080003130F
:1013200083166E088400203080006E0AF00070087A
:1013300084002030800002306E07F00070088400C6
:101340002030800003306E07F000700884002030E9
:10135000800004306E07F000700884003030800098
:1013600005306E07F0007008840080010430031718
:1013700083129000031383166D08003C031DC229DD
:101380006C08003C0318F529031783121008031397
:1013900083166E070317831291000A30F400F501DB
:1013A000031383166C08F0006D08F1004E257808D1
:1013B000F0007908F1003030F007031711088400BD
:1013C000700880000A30F400F501031383166C08DE
:1013D000F0006D08F1004E2570088316EC007108CE
:1013E000ED00031783129003BA2903178312080034
:1013F00003138316650884000008F2007208E600F3
:101400007208203A0319082A6608093A031D0A2AB5
:10141000E50AF829E701E801E90166082D3A031D0C
:10142000142AE90AE50A192A66082B3A031D192A23
:10143000E50A650884000008F0007008E6007008FE
:10144000EC000926700803193F2A6708F0006808B5
:10145000F1000A30F4000030F500BF23303083166D
:101460006602F200F301031CF30372087007E70041
:1014700071080318013F7307E800E50A192A690893
:1014800003194B2A6708003CF0006808031C013F61
:10149000F101F10208006708F0006808F100080097
:1014A00003138316E9016508EA006608EB00803043
:1014B0006606F00080307002031D602A003065026D
:1014C00003186C2A0130E9006508003CEA00660850
:1014D000031C013FEB01EB026A08EC006B08ED0016
:1014E0006708EE008F21063003138316E8006808B2
:1014F000003C03188F2A68086707F2000130680271
:10150000F000F101031CF103700867078400000874
:10151000F0007208840070088000E803772A6708EA
:1015200084002030800069080319A92A6808670729
:1015300084000008F2007208203A031DA12AE80A7C
:10154000962AE80368086707F000700884002D30C9
:101550008000080003138316D701AC30E500831226
:101560006E088316E60083126F088316E700D924FD
:101570007008E7005508E5000130E6003323AC3081
:101580008316E5000130F4005608F00074080319D2
:10159000CD2AF00D7010FF3FC72A7008BB3F8400B2
:1015A0000008E600840A0008E700D9247008E70074
:1015B0005508E5000130E6003323031383127B2333
:1015C0007008D7007008233A0319EA2A57082A3A04
:1015D000031DDD2A5708F0000800031383122008BA
:1015E0008400031714080319F52A801100118013D1
:1015F000001380120012941B8017141B0017941AFA
:101600008016141A0016031321080319092B001160
:101610000A2B001580158A1138278A15031714081C
:101620000319122B80110011801300138012001275
:10163000941980171419001794188016141800169E
:10164000031321080319262B0011272B00158015E1
:101650008A1138278A15801121080319312BEC25AE
:10166000322B37260800452B803003138316E50004
:10167000582BC030E500582B9430E500582BD4305F
:10168000E500582B8030E500582B031383166508BE
:10169000013A0319342B6508023A0319392B6508FE
:1016A000033A03193C2B6508043A03193F2B422BDC
:1016B0006603F0006508F0077008E500700803177E
:1016C00083129400ED22A1018316E80168086707E0
:1016D00084000008F00070080319772B680867077A
:1016E00084000008EC00FD258316E80A662B013013
:1016F0008312A100080003138316E501EC01AB245B
:101700007008EC007108ED008A11D6268A15700861
:1017100003138316E5000230FB00FF30FA00FB0BD9
:10172000922B952BFA0B922B8F2B9D30FA00FA0BF4
:10173000972B0000EC01AB247108033C031DA22B86
:101740007008E83C03187E2B6508003C0318BB2B8F
:10175000831285172130FB00FF30FA00FB0BB12B01
:10176000B42BFA0BB12BAE2B6030FA00FA0BB62B70
:1017700000000000851383166508F00008000313BD
:101780008312FB01FA01F9018030F800FD01F11F1D
:10179000CF2BF109F009F00A0319F10AFD0AF51F30
:1017A000D72BF509F409F40A0319F50AFD0AF10C1F
:1017B000F00C031CE42B7408F90775080318750F67
:1017C000FA070318FB0A0310F01FEC2B7408FA0742
:1017D0000318FB0A7508FB07FB0CFA0CF90CF80C54
:1017E000031CD72B7D1CFF2BFB09FA09F909F8090B
:1017F000F80A0319F90A0319FA0A0319FB0A7B0804
:10180000F3007A08F2007908F1007808F00000008F
:1018100008001B2C803003138316E5002E2CC030EB
:10182000E5002E2C9430E5002E2CD430E5002E2C33
:101830008030E5002E2C031383166508013A031946
:101840000A2C6508023A03190F2C6508033A03199C
:10185000122C6508043A0319152C182C6603F000A5
:101860006508F0077008E50001308312A1007008D8
:1018700003179400ED22A101831667080317831252
:101880009400ED220130A100080003138316E80143
:1018900083126D0883166602031D522C83126C0896
:1018A00083166502031C562CF0010800E701063080
:1018B000670203187B2C0130F4006708F0007408FD
:1018C0000319662CF00D7010FF3F602C7008A03FCC
:1018D00084000008F100840A0008F2007208660221
:1018E000031D742C71086502031C792C670AE8003B
:1018F0007B2CE70A572C6808F000080003138316B6
:1019000085018B01860107309C009B0183128601B3
:101910008501403083168F000630E50040210130FC
:1019200003179400ED220C3003179400ED22831668
:10193000051485140515851506140F309B0080309D
:1019400083129F00803083169F008B018C018D01D4
:10195000831297010800031383129F01C0309F0474
:1019600083161F179F176C08F000F00D7010F00D14
:101970007010F00D7010700883129F041F142E2633
:101980001F151F1DC52C0000C12C1F100830F200B0
:101990001E08F000F10172080319D32CF00DF10DAF
:1019A0007010FF3FCC2C83161E08F0040030F104A9
:1019B0000800031383166508E800031383166508FF
:1019C000F200E50A6608F0006708F100E60A03196C
:1019D000E70A70088312A4007108A3000A08A20095
:1019E0007026F00022088A007208840070088000C7
:1019F000720884000008F00070080319002DDD2C27
:101A000083166808F0000800013003138316EC0009
:101A1000AB247008E5007108E60045247008CB008F
:101A20000230EC00AB247008E5007108E6004524A4
:101A30007008CC000800031383166C080317831288
:101A40009400031383166E080317831295007F25F5
:101A500003136C0A031783129400031383166F0891
:101A60000317831295007F250800031383166C0863
:101A70000317831294002326700803138316EE00C5
:101A80006C0A03178312940023267008031383162D
:101A9000EF006E08F0006F08F100080003138312D6
:101AA000F801F9011030FC00710DF80DF90D740802
:101AB000F8027508031C750FF9020318662D7408E7
:101AC000F80775080318750FF9070310F00DF10DED
:101AD000FC0B542D0800031383166508653F840032
:101AE0000008E600E7010030E7006608EC00670840
:101AF000ED0035257008E6007108E70008000000D9
:101B0000031783168C1C862D0000802D8312140869
:101B10008D0015088C0083168C130C158B13553013
:101B20008D00AA308D008C148B170C110800031344
:101B30008316D5015508063C031CA62D5508E50063
:101B4000E601E701A7250313D50A9A2D0800031320
:101B500083166508653F84000008EC00ED01003045
:101B6000ED006608EE006708EF001B250800203432
:101B700020342034203420342034203420342034C5
:101B800020342034203420342034203420340034D5
:101B9000080049346D3470346F34723474346934ED
:101BA000203461347A347A34653472346134743474
:101BB00069340034080041347A347A34653472343C
:101BC0006F34203449346D3470346F34723474346B
:101BD00069343F3400340800023003138312FB00E1
:101BE000FF30FA00FB0BF52DF82DFA0BF52DF22D39
:101BF000C730FA00FA0BFA2D080003138312A10173
:101C000083166C08031783129400ED220130A100A3
:101C10000800031383166C08393C031C162E303061
:101C20006C02031C162E0130F000172EF001080084
:101C30004D344F344E344F342D34423441344E34CD
:101C40004B34003408000317831214088D008316E8
:101C50008C130C1483120C08F000080001300313DD
:101C60008312FA00FA0B322E000000000800033045
:101C700003138312FA00FA0B3B2E00000000080049
:101C800049346E3469347A3469346F343A34003408
:101C9000080054346F346C3467346F343A34003491
:101CA00008004D3475346F3476346F343A34003470
:101CB00008004D346534743474346F343A3400346D
:101CC0000800533461346C3464346F343A34003473
:101CD0000800203003138316B2002030B300080040
:101CE0000313831223088A002408820008008B1241
:101CF0000B118B130B130800203400340800FF3F36
:04400E00383FFC3FFC
:00000001FF
